:020000040800F2
:10000000000008249D02000841070008430700087B
:1000100045070008470700084907000800000000DE
:100020000000000000000000000000004B07000876
:100030004D070008000000004F07000851070008A6
:100040009902000899020008990200089902000824
:100050009902000899020008990200089902000814
:100060009902000899020008990200085507000843
:1000700099020008990200089902000899020008F4
:1000800099020008990200089902000899020008E4
:1000900099020008990200089902000899020008D4
:1000A00099020008990200089902000899020008C4
:1000B00099020008990200089902000899020008B4
:1000C00099020008990200089902000899020008A4
:1000D0009902000899020008990200089902000894
:1000E0009902000899020008000000009902000827
:1000F0009902000899020008990200089902000874
:100100009902000899020008990200089902000863
:100110009902000899020008990200089902000853
:100120009902000899020008990200089902000843
:100130009902000899020008990200089902000833
:1001400000000000000000000000000000000000AF
:100150009902000899020008990200089902000813
:100160009902000899020008990200089902000803
:100170009902000899020008610700089902000826
:1001800099020008990200089902000899020008E3
:1001900099020008990200089902000899020008D3
:1001A00099020008990200089902000899020008C3
:1001B00099020008990200089902000899020008B3
:1001C00099020008990200089902000899020008A3
:1001D0009902000899020008990200089902000893
:1001E0009902000899020008990200089902000883
:1001F0009902000899020008990200089902000873
:100200009902000899020008990200089902000862
:10021000990200086D070008990200089902000879
:1002200099020008990200089902000800000000E5
:1002300099020008990200080000000099020008D5
:100240009902000899020008990200089902000822
:100250009902000899020008990200089902000812
:100260009902000899020008990200089902000802
:100270009902000899020008990200080000000095
:100280009902000899020008990200080000000085
:080290000000000099020008C3
:10029800FEE7000008B50B4A0B4B0C498B4209D30B
:1002A8000B4B00210B4A934209D300F009FA00F0E6
:1002B80077F8FEE752F8040B43F8040BEEE743F82F
:1002C800041BF0E770640008000000241C000024F0
:1002D8002000002494BD0024014B01221A707047AD
:1002E8002A00002430B59DB04C22002109A805F051
:1002F8004AFC2022002101A805F045FC022003F059
:1003080005FC00230093244B9A6942F440429A6109
:100318009A6902F440420092204AD16A41F00101F0
:10032800D162D26A02F001020092009A9A6994049A
:10033800FCD54FF4803321210520602201240825B3
:10034800CDE9091302230F94CDE91233CDE9163311
:1003580018930023CDE9140209A81B93CDE919537A
:1003680003F0F8FB00B1FEE73F2203232146CDE965
:100378000305CDE90500CDE9070001A8CDE9012372
:1003880003F068FF00B1FEE74FF480124FF0807170
:1003980003F070FE1DB030BD00480258000400583C
:1003A8002DE9F04F87B0002110224FF0104502AC24
:1003B800204605F0E8FB01F073FD0123AB4A204617
:1003C800ADF808300593CDE9035201F087FD40F2FE
:1003D8000113A74A2046ADF80830A64B0395CDE98E
:1003E800042301F07BFD40F201234FF01051204619
:1003F800ADF80830A04BCDE90313A04B059301F0ED
:100408006DFD042001F05AFD9D4B5A6912F400322B
:1004180011D1BFF34F8FBFF36F8FC3F85022BFF3D3
:100428004F8FBFF36F8F5A6942F400325A61BFF39E
:100438004F8FBFF36F8F924A536913F4803323D1E0
:10044800C2F88430BFF34F8FD2F8803043F6E0759E
:10045800C3F3C900C3F34E335B0103EA0507014642
:1004680047EA81760139C2F86062F9D2203B13F17C
:10047800200FF2D1BFF34F8F536943F48033536198
:10048800BFF34F8FBFF36F8F01F04CFCFFF72AFFCC
:1004980000F080F900F0EEFA00F00CFA00F006FB2C
:1004A80000F07CFB00F03AFC01F036FB00F072FD36
:1004B8000921744801F000F8734BDA8945F240636A
:1004C8009A4200D0FEE7714D4FF416530021704850
:1004D8002A4601F0B5FD00B1FEE76E4F6E4E4FF4AF
:1004E80000516E4802F0B8FF012880460DD13B78D4
:1004F8005BB900F057FD0322431CB3FBF2F202EB99
:1005080042029B1AD8B200F047FD337887F8008082
:10051800002BE4D000233370BFF34F8F584AE918FB
:100528002033B3F5164FC2F85C12F8D1BFF34F8FE2
:10053800BFF36F8F7822A0215448DFF87C8100F048
:1005480037FD4FF44851564800F0FCFEB8F800302B
:10055800544E0133544FA8F800303368002B3CD177
:1005680001F01AFC30603B880A21504A0026632BB0
:1005780005F5C857106828BF632392792060A271D7
:10058800B3FBF1F201FB123302F1300030338DF886
:100598000C008DF80D30B81906F5A0765022002110
:1005A80005F0F1FAB6F5346FF5D1414F01224FF05D
:1005B800000C4FF6FF7E07F10A08A7F1320906ABD7
:1005C80013FA8CF313F8101CD1B95023344A084697
:1005D8000093A02301F06AFB7FE701F0DDFB33689D
:1005E800C01AB0F57A7FBED3B8F800304FF47A72EB
:1005F8005343B3FBF0F33B800023A8F80030AFE788
:10060800A1F13003D8B2092823D803EB83034B4464
:1006180002F55260002605EB400013F806A0002101
:100628004AFA01FB1BF0010F1CBF4FF4A07B0BFB28
:1006380001FB01F1010118BF20F80BE00729EFD1F8
:1006480001360230052EE8D106320CF1010C92B2C7
:10065800B5E7462905D0502905D05329F4D143469A
:10066800D6E73B46D4E7134BD2E700BF1B00010097
:10067800160001050000010112000103000101013B
:1006880000ED00E00897002474BD00244000002419
:10069800B8960024260000242A00002400080258E6
:1006A800401900242000002428000024D85B0008FA
:1006B8001C5C0008215C000824000024FEE7000000
:1006C80018491948D1F8883043F4700310B5C1F8B7
:1006D8008830164B1A6842F001021A6000221A612B
:1006E8001C68204018609A61DA611A629A62DA62BC
:1006F8001A635A639A63DA631A645A64186820F4AE
:10070800802018601A660A4B1B686FF30F03B3F159
:10071800005F03D2074B0122C3F808214FF00063A2
:100728008B6010BD00ED00E07FEDF6EA0044025852
:100738000010005C008000517047FEE7FEE7FEE70E
:10074800FEE770477047704701F01ABB014802F096
:10075800E3B900BF40960024014801F0F7BC00BF90
:10076800B8960024014804F02ABF00BFDC97002493
:10077800074B82B0D3F8F42042F00202C3F8F42009
:10078800D3F8F43003F002030193019B02B07047E1
:100798000044025870B58CB014220021002407A828
:1007A800012605F0F0F93F4B08213F48D3F8E02037
:1007B800022542F01002C3F8E020D3F8E02002F04E
:1007C80010020192019AD3F8E02042F00402C3F823
:1007D800E020D3F8E02002F004020292029AD3F853
:1007E800E02042F08002C3F8E020D3F8E02002F0D5
:1007F80080020392039AD3F8E02042F00102C3F882
:10080800E020D3F8E02002F001020492049AD3F821
:10081800E02042F00802C3F8E020D3F8E02002F01C
:1008280008020592059AD3F8E02042F00202C3F8C4
:10083800E0200022D3F8E03003F002030693069B81
:1008480002F010FE01224FF42051174802F00AFE70
:10085800082307A91448CDE90736CDE9094402F071
:1008680019FD4FF4005307A910480995CDE907343D
:1008780002F010FD4FF4205307A90B480994CDE965
:10088800073603230A9302F005FD4FF4807307A986
:1008980007480B94CDE90735CDE9094502F0FAFC84
:1008A8000CB070BD004402580010025800080258ED
:1008B8000000025808B50C4920220C4B08460B6072
:1008C8000023C1E90132C1E90333C1E90533C1E9B4
:1008D8000833C1E90A330B6301F06AFB18B1BDE8BC
:1008E8000840FFF7EBBE08BDB89600240000024898
:1008F800F0B58DB006461422002107A805F043F98B
:100908003268534B9A4240F0A180524B0D24022783
:1009180007A9D3F8DC2000254F4842F00102C3F8AC
:10092800DC20D3F8DC2002F001020192019AD3F80E
:10093800E02042F01002C3F8E020D3F8E02002F0F3
:1009480010020292029AD3F8E02042F00102C3F8A2
:10095800E020D3F8E02002F001020392039AD3F8D2
:10096800E02042F00402C3F8E020D3F8E02002F0CF
:1009780004020492049AD3F8E02042F00802C3F873
:10098800E020D3F8E02002F008020592059AD3F897
:10099800E02042F00202C3F8E020D3F8E03003F090
:1009A80002030693069B7323CDE907370B9402F0E5
:1009B80071FC502307A929480B94CDE90737CDE9E5
:1009C800095502F067FCC02307A925480B94CDE917
:1009D8000737CDE9095502F05DFC082307A921482E
:1009E8000B94CDE90737CDE9095502F053FC802374
:1009F80007A91D480B941D4CCDE90737CDE90955CA
:100A080002F048FC4B231A4A4FF480614FF48040AF
:100A1800C4E900234FF48053C4E904134FF48073EE
:100A2800C4E906032046C4E90255C4E9085501F0A3
:100A38004DFD08B1FFF742FE00224E20B464114676
:100A4800A66301F0D9F94E2001F008FA0DB0F0BD07
:100A580000000248004402580010025800000258E2
:100A680000080258000C025800040258409600245E
:100A7800100002400C4B07B5D3F8D8200B2042F0E9
:100A88000102C3F8D8200022D3F8D830114603F069
:100A980001030193019B01F0AFF90B2003B05DF84E
:100AA80004EB01F0DBB900BF0044025808B5144953
:100AB8000122144B08460B6003F5000303F68A2352
:100AC8004B600023C1E90232C1E90433C1E90633AE
:100AD8000B6202F00DFE08B1FFF7F0FD0021084897
:100AE80002F0C8FF08B1FFF7E9FD0021044802F051
:100AF800E7FF18B1BDE80840FFF7E0BD08BD00BF3B
:100B0800089700240054004010B5B6B004461422DB
:100B1800002102A805F037F8BC22002107A805F03B
:100B280032F822681A4B9A422FD1082307A8079354
:100B380003F0A2FD08B1FFF7C1FD164C4FF4407257
:100B480001211548D4F8E03043F00203C4F8E0303E
:100B5800D4F8E03003F002030093009B1223CDE9A0
:100B680002230023CDE90413042302A9069302F00B
:100B780091FBD4F8E83043F40013C4F8E830D4F813
:100B8800E83003F400130193019B36B010BD00BF99
:100B980000540040004402580004025808B51649A1
:100BA8004FF48002154B4FF0806C07200B604FF418
:100BB800C023C1E901234FF000520023C1E906C256
:100BC8004FF080424B61C1E903030846C1E908338D
:100BD800C1E90A33C1E90D23C1E90F33C1E9113372
:100BE800C1E91333C1E9153304F024FA18B1BDE89B
:100BF8000840FFF763BD08BD549700240034014046
:100C080010B5B6B004461422002102A804F0BBFFB8
:100C1800BC22002107A804F0B6FF22681A4B9A42AA
:100C28002FD14FF4005307A8079303F025FD08B10F
:100C3800FFF744FD154B02A91548D3F8F02042F4FC
:100C48000052C3F8F020D3F8F02002F400520092CA
:100C5800009AD3F8E02042F01002C3F8E0204FF4E5
:100C6800A042D3F8E03003F010030193019B022364
:100C7800CDE902230022CDE904230523069302F0DF
:100C880009FB36B010BD00BF0034014000440258D3
:100C980000100258026882B0084B9A420CD1084BE7
:100CA800D3F8F02042F00102C3F8F020D3F8F03076
:100CB80003F001030193019B02B07047000001405B
:100CC8000044025810B586B004461422002101A839
:100CD80004F059FF22680E4B9A4217D10D4B01A917
:100CE8000D48D3F8E02042F01002C3F8E0204FF49A
:100CF8008062D3F8E03003F010030093009B0223D6
:100D0800CDE901230123059302F0C4FA06B010BD12
:100D180000000140004402580010025810B5002499
:100D280096B01C22214604A80394CDE9014404F09E
:100D38002AFF2C2221460DEB020004F024FF244A4E
:100D4800244B104613600B23C2E9013440F2E73309
:100D5800C2E90544C2E9033404F032FD08B1FFF7E3
:100D6800ADFC01A91A480394CDE9014404F080FEC2
:100D780008B1FFF7A3FC00246023042204A9144847
:100D88000694CDE904340823CDE90944CDE90734B4
:100D980004F086FD08B1FFF791FC4FF400530BA94E
:100DA8000B480F9412941594CDE910344FF000734A
:100DB800CDE90B44CDE90D44CDE9133404F09EFE92
:100DC80008B1FFF77BFC0248FFF77CFF16B010BDA7
:100DD8002898002400000140B5EEC00AB7EE007A5A
:100DE800F1EE10FA4CBFF1EE407AF0EE407A77EE71
:100DF800877A77EEA77A80EE277AB6EE000A37EE82
:100E0800000A70472DE9F04F85B000254FF0600AC1
:100E18004FF01F090393434B0E9ED3ED006A9FEDDD
:100E2800426ADFED425ACDE90102039BB0EE667AD1
:100E3800DFF804C14FF0000803F1FF3E2EEAEE7020
:100E4800029BE3464FF0FF375F28A8BF5F20584357
:100E5800B0FBFAF001FB00F30093EB19009A1D2098
:100E6800013723EAE373FBEC014A5F2BA8BF5F233A
:100E7800022F01FB03F3B3FBFAF31344019A32F890
:100E8800132052BA02F01F03C2F3C424C2F345125E
:100E9800C3EB0323C4EB0424C2EB0222B3FBF9F334
:100EA800B4FBF9F400FB03F34FF04D0000FB0433EF
:100EB8004FF03F00B2FBF0F24FF0960000FB023318
:100EC800C3F3072307EE903AF8EE677A87EE865A5F
:100ED800A4EE857AC1D108F103080EF1010E0CF1D8
:100EE8000C0CB8F1090FA9D111483346114A06F57F
:100EF8004064B0EC015AF2EC017AE5EE077AF5EEBF
:100F0800C07AF1EE10FA77FEA57AC3ED007A03F500
:100F1800C0739C42EDD101350436602D85D105B0F2
:100F2800BDE8F08F6860000800007F430000000003
:100F380048600008286000086C600008134B002215
:100F48005988C1F58070F0B580B21D791E88104FA0
:100F5800AB180132FF2BA8BFFF2373431B0AFF2BDB
:100F680028BFFF23FF2997BFC3F1FF04DBB203EBC0
:100F7800D4044B439CBF04FB0033C3F30723B2F5EF
:100F8800807F07F8013BE3D1F0BD00BF08000024D3
:100F980074BC0024FFF7D2BF014B1870704700BF24
:100FA8000E000024014B1878704700BF0E00002483
:100FB800D34B2DE9F04F1C789DB006461746022CFE
:100FC800069140F09981DFF87083202200210CA857
:100FD80004F0D9FD00233A4606993046CDF8008042
:100FE800FFF710FF08F540633A46304600930023A8
:100FF800FFF708FF08F5C0533A463046009301232F
:10100800FFF700FF0320A11E4FF44065B1FBF0F38A
:1010180003EB4303C91A631EB3FBF0F202EB42026F
:1010280005FB01819B1A05FB03830493B4FBF0F3D2
:1010380003EB4303E31A05FB03830025681E002D19
:101048004FEA850C05F10105AE4A08BF00205F2D67
:10105800039505924FEA800028BF5F25AA4A0DF143
:10106800500B4FF000090795059D01EB000E92ED1E
:10107800007A2432F5EC017ADEED006A01EB0C0E01
:101088000595E6EE877A079DDEED006A12ED087A8F
:1010980005EB090E049D09F1600901EB8E0AB9F50B
:1010A800407FE6EE877ADAED006A12ED077A05EB03
:1010B800000AE6EE877ADAED006A12ED067A05EBA9
:1010C8000C0AE6EE877ADAED006A12ED057A05EB8E
:1010D8008E0A03EB8E0EE6EE877ADAED006A12EDE1
:1010E800047A03EB000A00F5C070E6EE877ADAEDC1
:1010F800006A12ED037A03EB0C0A0CF5C07CE6EEED
:10110800877A12ED027ADAED006AE6EE877A12ED56
:10111800017ADEED006AE6EE877AEBEC017AA3D17C
:10112800DFF818920CAADFF818C20020F9EC017A4F
:10113800E2460DF1500B4FF0000E0EF1010EFBECE4
:10114800016ABAEC017ABEF1080FE6EE877AF4D1AB
:10115800F5EEC07A083004320CF1200CF1EE10FAEA
:10116800C2BF12ED017A77EE277A42ED017A402864
:10117800DCD1039A602A01D015465FE75F2C08D8B6
:10118800234600913A46069930460134FFF73AFE65
:1011980038E7612C01D0612434E70CAA00239FEDC5
:1011A8005B7AD2ED006A0133C6EE877A082BE2EC4F
:1011B800017AF6D1564C14A8564A00239FED567A68
:1011C800F4EC017A15460CAE00210131B6EC016A47
:1011D800F5EC016A0829E6EE267AF6D1F5EEC07A32
:1011E80008332032F1EE10FA77FE877A402BE0ECD4
:1011F800017AE5D1494C09A8494A0023F4EC017A5F
:10120800154614AE00210131F6EC016AB5EC017AFD
:101218000829E6EE877AF6D108332032E0EC017A25
:10122800182BEBD1F7EE006A9DED090AFFF7D4FD04
:10123800F7EE087A9FED3B5AF0EE665AB0EE456A33
:10124800E0EE275A9DED0A0AFFF7C6FDDFED367A74
:10125800A0EE276A9DED0B0AFFF7BEFDF3EE087AB4
:10126800F4EEE65A20EE270AF1EE10FA07D4F0EE73
:10127800046AF4EEE65AF1EE10FA76FEA56AB4EEC8
:10128800C56AF1EE10FA31D49FED287AB4EEC76A38
:10129800F1EE10FA37FE067AB5EEC00AF1EE10FA52
:1012A80027D4B4EEE70AF1EE10FA77FE807A9FEDC4
:1012B800206A204A66EE866A27EE067AFCEEE66A1F
:1012C800BCEEC77A16EE903A138017EE103AB6EED7
:1012D800007A538077EE877AFCEEE77A17EE903A39
:1012E80013711DB0BDE8F04FFFF728BE9FED0D7AD2
:1012F800D2E7DFED097ADAE71DB0BDE8F08F00BF6D
:101308000E000024E85E0008085F00080000104690
:10131800A85C0008C85C0008000000003C5C0008ED
:10132800485C00083333333F6666663FCDCCCC3F1C
:10133800000080430800002474980024C85D000859
:10134800E85D0008364B2DE9F04F1B786BB100EBD8
:1013580041011F253F264D274FF01D0C4FF0960EDB
:10136800DFF8C080FF24814201D1BDE8F08F0288F8
:1013780052BAC2F3C42BC2F3451302F01F02CBEBDF
:101388000B2BC2EB0222C3EB0323B2FBF5F2BBFB30
:10139800F5FBB3FBF6F30CFB02FA07FB0BAA0EFBFB
:1013A80003AA4FEA1A2A18F80A90BAF1000F32D0A5
:1013B8004FEA0929B9FBFAFA0AFB0BFB0AFB03F30C
:1013C8004FEA1B2B0AFB02F21B0ABBF1FF0F4FEA85
:1013D800122A28BF4FF0FF0BFF2B28BFFF23B2F5BF
:1013E800803F5FFA8BF9DBB218D25FFA8AF2C3EB5F
:1013F8008313C9EB4919C2EB4212B3FBF4F3B9FBEF
:10140800F4F9B2FBF4F25B0143EAC92313435BBA74
:1014180020F8023BA7E74A464B46E8E7FF22E6E703
:101428000E00002474BC002410B5836886B00479CB
:10143800029301238DF817200A4601930DF1170333
:10144800611C00930223006802F0A3F9003818BF5A
:10145800012006B010BD1FB58368047902930123EB
:10146800CDE900230A460223611C006802F046FA0F
:10147800003818BF012004B010BD37B50446002558
:101488000DF1060243F20A018DF806508DF8075057
:10149800FFF7E1FF0DF1070243F20B012046FFF7CA
:1014A800DAFF9DF806209DF807302846A58143EA13
:1014B8000223E38103B030BD38B50A4C78230D46CA
:1014C8002371642320602046A360FFF7D6FFE289DA
:1014D80045F240639A4204D12846BDE8384000F0FE
:1014E80027B838BD74BD00240F4B1A880F4B5B7C9E
:1014F800191F012901D9022B10D1B0F5A06F06D808
:10150800031D1BB25B009A42B8BF1A4692B2FC3266
:1015180040F29E509042B8BF10467047B0F5207F09
:10152800F5D904304300EEE78CBD002474BD0024D7
:101538002DE9F04F112287B043F2031105465448B4
:10154800FFF772FF534C822243F208015048FFF71D
:101558006BFF052000F026FC14F8033B002B40F03D
:101568008D804B4C4FF4967000F01CFC6122257462
:1015780001254FF4864120466574FFF755FF2A463A
:1015880045F21F012046444DFFF74EFF0DF11702AB
:1015980043F621012046FFF75EFF9DF8172043F62A
:1015A8002101204602F0DF02FFF73EFF0DF117028E
:1015B80043F202012046FFF74EFF9DF8172043F241
:1015C8000201204642F01C02FFF72EFF0DF1170220
:1015D80043F206012046FFF73EFF9DF8172043F22D
:1015E8000601204602F0D702FFF71EFF2B4B1B888F
:1015F80093B1237C35F82300FFF776FF0646C0F346
:10160800072243F60C012046FFF70EFF43F60D01B3
:10161800F2B22046FFF708FF237C627C35F823608E
:1016280005EB8305022AB5F8028039D146EA08029B
:10163800510738D00DF1170243F621011448FFF77E
:101648000AFF9DF8172043F62101114802F0F9021C
:10165800FFF7EAFE0DF1170243F620010C48FFF7E9
:10166800FAFE9DF8172043F62001094842F00602C9
:10167800FFF7DAFE012007B0BDE8F08F14F8021C6E
:1016880014F8012C41EA03210148FFF7CDFE63E776
:1016980074BD002410610008906000088CBD00240F
:1016A800043A012A06D80D2B06D843F21202DA4072
:1016B800D207BFD4072BBDD0B6F5226FBAD8B8F57C
:1016C800F36FB7D8D44BD54D1888B5F90040B04260
:1016D80038BF30461880C0F52262D14B02EBD27277
:1016E80019885210414538BF41469442A8BF144654
:1016F80052421980C1F5F363944203EBD373B8BF28
:1017080014465B1024B22C80C64DB5F900209A42CD
:10171800A8BF1A465B429A42B8BF1A46B6EB500FAA
:1017280012B22A8000F27481B8EB510F8CBF4FF0CF
:10173800010A4FF0020A00F1100C04EBD4756FF0A7
:10174800070401F108071FFA8CFC07EE106A6D10F8
:10175800CCF5226EBFB2F8EE476ABEF1000FF14633
:10176800B8BF0EF1030905EBA9056D007545A8BFC3
:101778007546C7F5F36EA542F146B8BF254600F198
:101788000F04BEF1000F05F11005B8BF0EF10309F3
:101798001FFA85FB14FA85F502EBD2746FF0030289
:1017A800ADB26410C4EBA90464007445B0FBFAF050
:1017B800A8BF744607EE900A30469442F8EEE77ADE
:1017C800B8BF1446CA1D87EEA67A06EE908A06347C
:1017D800A3B212FA84F4B8EE666A0193A4B2B1FB1C
:1017E800FAF107EE901AF8EEE77ABCFBFAFCC7EEBE
:1017F800866A07EE906AF8EEE77AB7FBFAF7F4EE36
:10180800C76AF1EE10FA37FE267A67EE877AFCEEA1
:10181800E77A17EE903A07EE908AF8EEE77A9AB2EE
:10182800ACEB020267EE877A02EBD272FCEEE77A43
:101838005310029317EE903A9AB2BA1A183702EB7D
:10184800D2725310784A0393A2F800C0FFF74CFEF7
:10185800F82F81464FEA1B224FF460517348B8BFF6
:10186800F827FFF7E1FD43F601015FFA8BF26F48B5
:10187800FFF7DAFD019B43F602016C481A0AFFF7ED
:10188800D3FD9DF8042043F603016848FFF7CCFD1B
:1018980043F604012A0A6548FFF7C6FD43F6050129
:1018A800EAB26248FFF7C0FD43F60601350A5F4811
:1018B800220AFFF7B9FD43F60701E2B25B48F6B228
:1018C800FFF7B2FD2A464FEA182443F608015748A5
:1018D8005FFA88F8FFF7A8FD324643F60901534836
:1018E800FFF7A2FD224643F60A015048FFF79CFD88
:1018F800424643F60B014D48FFF796FDC9F3072210
:1019080043F60C014948FFF78FFD43F60D015FFAD6
:1019180089F24648FFF788FDC7F3072243F60E0110
:101928004248FFF781FD43F60F01FAB23F48FFF73F
:101938007BFD029B4FEA4A1743F61001C3F30722C7
:101948003A48103FFFF770FD9DF8082043F6110153
:10195800364847F00107FFF767FD039BFFB243F6E0
:101968001201C3F307223148FFF75EFD9DF80C20F2
:1019780043F613012D48FFF757FD3A4643F6140185
:101988002A48FFF751FD3A4643F615012748FFF765
:101998004BFD0DF1170243F620012448FFF75BFDCC
:1019A800AAF102039DF8172043F620015F421F4861
:1019B80022F001025F413A43FFF736FD0DF11702AD
:1019C80043F621011948FFF746FD9DF8172043F615
:1019D8002101164822F001023A43FFF725FD2A4665
:1019E80044F202611148FFF71FFD324644F20361D9
:1019F8000E48FFF719FD224644F204610B48FFF731
:101A080013FD424644F205610848FFF70DFD11E653
:101A18004FF0010A8FE600BF120000248ABD00249F
:101A28001000002488BD00248CBD002474BD00244F
:101A380007B500228DF807004FF400610B4801F04C
:101A480011FD00224FF40051084801F00BFD6423FA
:101A58000DF107010122064803F07EFB01224FF435
:101A68000061024801F0FEFC03B000BD00100258FE
:101A78005497002438B5002204460D460C484FF40C
:101A8800006101F0EFFC01224FF40051084801F019
:101A9800E9FC2146AAB24FF4FA73064803F05CFB4E
:101AA80001224FF400610248BDE8384001F0DABC79
:101AB800001002585497002438B50C461546FFF715
:101AC800B7FF29462046BDE83840FFF7D3BF37B5F2
:101AD800013B01301A31013A8DB213FA81F143BA50
:101AE80012FA80F004228CB240BAADF804300DEB43
:101AF80002016DBAADF806002A20FFF7DDFF0422C7
:101B080064BA2B200DEB0201ADF80450ADF8064085
:101B1800FFF7D2FF03B030BDF0B55E4B91B01A8825
:101B280004AD9B7805AEADF81020AB705A4B186821
:101B38009B880690ADF81C30584B1A889B78ADF8F6
:101B4800142008AAB3700A23ADF8043042F68A2399
:101B5800ADF808304EF68A63ADF80C30504B03F1FF
:101B680010071868083353F8041C1446BB4203C412
:101B78002246F6D14B4B0CAA03F11007186808331C
:101B880053F8041C1446BB4203C42246F6D1464C03
:101B98000421204603F06AFF236864220120C5243B
:101BA8009A63FFF745FF782000F0FCF80120FFF763
:101BB8003FFF782000F0F6F81120FFF739FF782072
:101BC80000F0F0F829460322B120FFF775FF2946F7
:101BD8000322B220FFF770FF06A90622B320FFF701
:101BE8006BFF07230DF103010122B4208DF80330A8
:101BF800FFF762FF31460322C020FFF75DFF0DF1BA
:101C080003010122C1208DF80340FFF755FF01A908
:101C18000222C220FFF750FF02A90222C320FFF7C9
:101C28004BFF03A90222C420FFF746FF0E230DF144
:101C38000301012220468DF80330FFF73DFF2120E4
:101C4800FFF7F6FE05230DF1030101223A208DF876
:101C58000330FFF731FF08A91022E020FFF72CFF1F
:101C68000CA91022E120FFF727FFA82301220DF17C
:101C7800030136208DF80330FFF71EFF1320FFF70E
:101C8800D7FE2920FFF7D4FE0A2000F08BF811B008
:101C9800F0BD00BFE25B0008DF5B0008E65B000800
:101CA800B85B0008C85B00082898002470B51C467B
:101CB800BDF810601546334622467443FFF707FF08
:101CC8002C20FFF7B5FE610004D02846BDE870401F
:101CD800FFF7D0BE70BD000038B50F4B05461A7827
:101CE8000AB9012038BD4FF47A73B3FBF2F30B4AFB
:101CF8001068B0FBF3F000F0BFF804460028F0D1FC
:101D08000F2DEED8024629464FF0FF3000F074F848
:101D1800034B20461D60E5E714000024040000245E
:101D28001800002410B5032000F054F802F0F0F970
:101D38000F49104A8B69C3F30323D35C03F01F03D5
:101D4800D8408B6903F00F03D35C0B4A03F01F03E1
:101D580020FA03F31360094B18600020FFF7BCFF5B
:101D6800044618B9FEF704FD204610BD0124FBE720
:101D7800004402582B5C00080000002404000024E2
:101D8800034A044B11681B780B441360704700BF6B
:101D980090BD002414000024014B1868704700BF50
:101DA80090BD002438B50446FFF7F6FF0546631CCE
:101DB8001EBF044B1B78E418FFF7EEFF431BA3423A
:101DC800FAD338BD14000024014B1868000C704782
:101DD8000010005C07490302CA6803F4E06322F4B8
:101DE800E0621204120C134343F0BF6343F4003360
:101DF800CB60704700ED00E0164B30B5DC68C4F3EB
:101E08000224C4F10703251D042B28BF0423062D33
:101E18004FF0FF358CBF033C002405FA03F300287C
:101E280005FA04F521EA030322EA050203FA04F39A
:101E380043EA02034FEA0313DBB206DB00F160401A
:101E480000F5614080F8003330BD00F00F00024A11
:101E58001354F9E700ED00E014ED00E0002807DB7B
:101E68000123410900F01F00024A834042F8213053
:101E7800704700BF00E100E00138B0F1807F0BD26D
:101E88004FF0E023054AF0215861002082F8231022
:101E9800072298611A6170470120704700ED00E041
:101EA800BFF35F8F044B5A6A22F480325A620022D1
:101EB800C3F89420704700BF00ED00E0064B40F0E7
:101EC8000100C3F894005A6A42F480325A62BFF3A0
:101ED8004F8FBFF36F8F704700ED00E04378144ACF
:101EE80010B5C2F898300178E9B14368C2F89C305F
:101EF800C37A047B1B0643EA04730B43817A43EAE3
:101F0800C143417B43EA8143817B43EA4143C17B2F
:101F180043EA0143417A43EA0123017A43EA410350
:101F2800C2F8A03010BDC2F89C10C2F8A010F9E7A2
:101F380000ED00E010B5846BA06CA26B036832B3AF
:101F48001968A26B12F001021AD1090318D5DB68CF
:101F5800E16B03EBC10101F06FF9A36B013BA363D4
:101F6800A26B236C9A420AD12368DA6842F0010214
:101F7800DA601B689B0702D5012384F8353010BD51
:101F88001A681203ECD41B690122E16BE1E71A68B5
:101F9800110302D5626CDA60E2E71A681203DFD433
:101FA800E06B626C216C02EB80021A61A163D7E7D7
:101FB80038B5044600283FD090F835300BB9FEF705
:101FC80097FC022384F83530A3690BB100226262C2
:101FD80022681A49106865690140116061681068D3
:101FE8000B43102943EA0503E56843EA050325691D
:101FF80043EA0503A56843EA0503256A43EA05039E
:10200800656A43EA0503A56A43EA0503E56A43EA04
:102018000503256B43EA050343EA0003136001D176
:10202800E3699361D368002043F01E03D360012362
:10203800E06484F8353038BD0120FCE707F0E0FFA4
:102048002DE9F3410E4690F834100446154601294F
:102058004FF0020030D021684FF0010884F83500B5
:10206800B3F5803F84F834800868DFF8B4C040F4E2
:1020780080400860086820F002000860086840EAAC
:102088000600264E0860A06CC6644FF00006C0F833
:102098003CC00665A6632664E66366640FD22831F1
:1020A80000F0B8FB002830D04023E36484F8358082
:1020B8000023012084F8343002B0BDE8F081C0F874
:1020C80044C0C4F838806264E363E36BB3F5803FCF
:1020D80014D2A36B2831023BA363A36B2364E36B85
:1020E800E26B05EB830300922A4600F01FFF60B104
:1020F8004023E364012384F83530D9E7E36B5B08B8
:10210800E363A36B5B00A363DFE722680020136827
:1021180043F00103136084F83400CDE72F21000851
:102128003D1F00087047806B08B5836C5B6D022B00
:1021380006D0012380F83530C36C43F04003C364F4
:10214800FFF7F0FF08BD70477047000038B5036817
:1021580004461D6969070CD504225A61C36C43F013
:102168000203C3641D4B80F83520806C036500F0C2
:1021780043FCAA070ED523680222A06C5A61E36CBF
:1021880043F00103E364042384F83530134B0365FB
:1021980000F032FCEB0605D52368102220465A6170
:1021A800FFF7D1FF280705D52368082220465A6182
:1021B800FFF7CAFFE90710D523681A68920703D505
:1021C800DA6822F01E02DA60DA68204622F001029C
:1021D800DA6001225A61FEF77FF838BD2F21000826
:1021E800F0B5DFF844C10468876D644545D04C4DAF
:1021F800AC4242D01835AC423FD01835AC423CD046
:102208001835AC4239D01835AC4236D01835AC4206
:1022180033D01835AC4230D005F55675AC422CD0C9
:102228001835AC4229D01835AC4226D01835AC4206
:1022380023D01835AC4220D01835AC421DD0183503
:10224800AC421AD01835AC4217D0364DAC4214D037
:102258001435AC4211D01435AC420ED01435AC4212
:102268000BD01435AC4208D01435AC4205D0143527
:10227800AC4202D01435AC4248D1D0E919566E6050
:10228800C56E15B1D0E91C566E606445C56D86688B
:102298002DD0234884422AD01830844227D01830C1
:1022A800844224D01830844221D0183084421ED071
:1022B800183084421BD01830844218D000F556706C
:1022C800844214D01830844211D0183084420ED081
:1022D800183084420BD01830844208D01830844219
:1022E80005D01830844202D0183084420FD13F20E4
:1022F80005F01F0500FA05F5BD60206820F4802070
:102308002060402E636008D1A260E160F0BD05F056
:102318001F050120A8407860F3E7A160E260F5E7B7
:102328002800024008540258100002400368024680
:1023380023498B4210B531D018318B422ED0183139
:102348008B422BD018318B4228D018318B4225D0A4
:1023580018318B4222D018318B421FD018318B4252
:102368001CD001F556718B4218D018318B4215D00C
:1023780018318B4212D018318B420FD018318B4252
:102388000CD018318B4209D018318B4206D0183145
:102398008B4203D023F0FF00906510BDDCB21821FA
:1023A8000848103CB4FBF1F101F007015F2C415CD7
:1023B80023F47F7020F00300D16588BF0430EBE779
:1023C800100002406764000802682049D3B28A42BC
:1023D80028D014318A4225D014318A4222D01431AF
:1023E8008A421FD014318A421CD014318A4219D033
:1023F80014318A4216D014318A4213D01821103B66
:10240800B3FBF1F312491144A8291CD903F18052F6
:10241800012103F01F0302F5024201FA03F30D49FB
:1024280092000CE01422083B0121B3FBF2F303F104
:10243800B05201FA03F3084902F516429200836686
:10244800C0E9182170470833E0E700BF0854025874
:10245800F0FBFDBF80080240805802580279511EE7
:10246800072910B521D80368134CA3421ED0143491
:10247800A3421BD01434A34218D01434A34215D05D
:102488001434A34212D01434A3420FD01434A342FC
:102498000CD01434A34209D0084B1344084A9B00BB
:1024A800C0E91B3201238B40436710BD054B134421
:1024B800054A9B00F4E700BF085402583F82001009
:1024C800400902403F96001640590258F8B50546A3
:1024D800FFF762FC0746002D00F0D2802C68AA4E58
:1024E800B44200F08D80A94B9C4200F089801833DB
:1024F8009C4200F0858018339C4200F0818018339C
:102508009C427DD018339C427AD018339C4277D0B5
:1025180018339C4274D003F556739C4270D018331C
:102528009C426DD018339C426AD018339C4267D0C5
:1025380018339C4264D018339C4261D018339C42B3
:102548005ED018339C425BD0914B9C4240F0FC809B
:10255800002385F83430022385F83530AB682168CC
:10256800402B6FF3101100F00D81A3F1800253424C
:1025780053419B03D5E90320024368690243A869D4
:102588000243E8690243286A41EA1011284641EAF1
:10259800D2021343142223607E4B2344B3FBF2F38D
:1025A8009B00EB65FFF7C2FEEB6D03F01F020123F2
:1025B80093404360764B9C4200F0AB8014339C42BE
:1025C80000F0A78014339C4200F0A38014339C428F
:1025D80000F09F8014339C4200F09B8014339C428F
:1025E80000F0978014339C4200F0938014339C428F
:1025F80000F08F8000200123686585F8353040E0C1
:10260800002385F83430022385F83530236823F019
:10261800010323602C682368DB0727D423685E49FD
:10262800AA691940D5E90230034328690343686958
:102638000343E86913430343286A0343686A042889
:1026480043EA010302BFD5E90B1739430B4353494A
:1026580009686FF30F01B1F1005F1BD369682E2978
:1026680010D8282916D943F4801313E0FFF794FBF8
:10267800C01B0528CED920236B65032385F8353088
:102688000120F8BD3F39132904D8454F27FA01F135
:10269800CF07E8D423600428636923F0070343EADB
:1026A800000328D1A96AE86A0B4320B33AB9012983
:1026B80016D031F002021ED1C1011CD513E0B2F5CB
:1026C800005F14D1032916D801A252F821F000BFE7
:1026D800EF260008C1260008EF260008E9260008B2
:1026E800B0F1C07F07D140236B650123C6E70229FB
:1026F800F9D90329E0D063612846FFF717FEEB6D8F
:10270800B44203F01F024FF03F0303FA02F3836061
:102718004AD128460024FFF757FEAB682A6E802B63
:1027280004BF00236B606B68D9B2013B1160072BB3
:10273800D5E91921516066D8FFF790FEEB6E1C6051
:10274800D5E91C325A6055E7164B9C423FF400AF5E
:1027580014339C423FF4FCAE14339C423FF4F8AE71
:1027680014339C423FF4F4AE14339C423FF4F0AE71
:1027780014339C423FF4ECAE14339C423FF4E8AE71
:10278800402379E71023F5E61000024028000240B4
:1027980008540258F8ABFDA73F8010FE0010005CFB
:1027A8000F030F001C540258194B9C42B1D0183328
:1027B8009C42AED018339C42ABD018339C42A8D070
:1027C80018339C42A5D018339C42A2D018339C429F
:1027D8009FD003F556739C429BD018339C4298D0E7
:1027E80018339C4295D018339C4292D018339C429F
:1027F8008FD018339C428CD018339C4289D0183320
:102808009C4286D0D6E6C5E91B446C67F2E600BF59
:102818002800024070B50546002800F0E08090F8D6
:102828003400012800F0DD80012085F8340095F897
:10283800350001284FF0000040F0CC8002246A4E99
:1028480085F835402C686865B44221D067488442D1
:102858001ED0183084421BD01830844218D018304B
:10286800844215D01830844212D0183084420FD0D8
:10287800183084420CD000F55670844208D01830C5
:10288800844205D01830844202D018308442FFD0E8
:10289800206820F0010020602846FFF7A1FCB44220
:1028A8002A6C53D0514B9C4250D018339C424DD087
:1028B80018339C424AD018339C4247D018339C4264
:1028C80044D018339C4241D018339C423ED003F583
:1028D80056739C423AD018339C4237D018339C42E6
:1028E80034D018339C4231D018339C422ED0183340
:1028F8009C422BD018339C4228D018339C4225D0B8
:10290800236823F00E0343F00A032360002A57D1FB
:10291800374B9C4225D0374B9C4222D014339C42E3
:102928001FD014339C421CD014339C4219D014334A
:102938009C4216D014339C4213D014339C4210D0BE
:102948002368002043F00103236070BD236823F04F
:102958001E0343F0160323601AB1236843F00803EB
:1029680023602B6E1A68D2032FD4EB6E1BB11A6842
:1029780042F480721A60B442E2D01C4B9C42DFD011
:1029880018339C42DCD018339C42D9D018339C426F
:10299800D6D018339C42D3D018339C42D0D01833A9
:1029A8009C42CDD003F556739C42C9D018339C4243
:1029B800C6D018339C42C3D018339C42C0D0BFE75E
:1029C800236843F004032360A2E71A6842F4807284
:1029D8001A60CAE74FF4006385F834006B6501207C
:1029E800B3E70220B1E700BF100002402800024010
:1029F800085402581C54025808B528B190F83530CC
:102A0800022B03D08023436501205DE003683F4A21
:102A1800934251D0183293424ED0183293424BD041
:102A28001832934248D01832934245D01832934214
:102A380042D0183293423FD0183293423CD002F52C
:102A48005672934238D01832934235D01832934296
:102A580032D0183293422FD0183293422CD01832E9
:102A6800934229D01832934226D01832934223D069
:102A78001A6822F00E021A601A6822F001021A601F
:102A8800234A934221D1026E136823F480731360A2
:102A9800D0E9161303F01F02012393404B60D0E9DD
:102AA80019325A60C36E2BB31A6822F480721A6006
:102AB800D0E91C325A601DE0042280F835201A68DB
:102AC80022F001021A60002008BD124A9342DAD0AF
:102AD80014329342D7D014329342D4D01432934252
:102AE800D1D014329342CED014329342CBD0143288
:102AF8009342C8D0002380F83430012380F8353061
:102B0800036D002BDFD09847DDE700BF10000240BF
:102B1800085402581C54025800232DE9F34101932C
:102B28000446844B844F1E680368856DBB42D5F804
:102B38000080D5F800C047D0804A934244D018326C
:102B4800934241D0183293423ED0183293423BD040
:102B58001832934238D01832934235D01832934203
:102B680032D002F5567293422ED0183293422BD0AF
:102B78001832934228D01832934225D01832934203
:102B880022D0183293421FD0183293421CD01832E8
:102B9800934219D06A4A934240F03981E16D04208A
:102BA8001A6801F01F01884010EA0C0F00F05681E6
:102BB800560740F153811104686040F14781D303FF
:102BC80000F14A81A36CA0E0E26D082102F01F0227
:102BD800914011EA080F0BD01868400708D518680B
:102BE80020F004001860A960616D41F00101616581
:102BF80028FA02F1C80709D55969090606D501213D
:102C08009140A960616D41F0020161650421914024
:102C180011EA080F07D01868800704D5A960616D0C
:102C280041F004016165102101FA02F212EA080F6D
:102C38000FD0196809070CD5AA601A6850036CD51B
:102C48001B68190301D4236C00E0A36C0BB1204668
:102C58009847E26D202102F01F02914011EA080F07
:102C68007AD02368BB422DD0344883422AD018300A
:102C7800834227D01830834224D01830834221D091
:102C8800183083421ED0183083421BD0183083423C
:102C980018D000F55670834214D01830834211D0F2
:102CA800183083420ED0183083420BD0183083423C
:102CB80008D01830834205D01830834202D018302B
:102CC800834232D1186810F0100F45D0A96094F8EB
:102CD8003510042936D1196821F01601196059698F
:102CE80021F080015961216C09B9A16C19B11968E9
:102CF80021F0080119603F239340AB60002384F85A
:102D08003430012384F83530236D002B00F09B808C
:102D1800204602B0BDE8F04118471A68D20592D49F
:102D28001A6822F008021A608DE7186810F0020F7E
:102D3800CBE700BF04000024100002402800024036
:102D4800085402581A68500349D51B68190353D40C
:102D5800636C0BB120469847636D002B73D0636D8D
:102D6800DA0752D5042384F835302368BB4221D0D2
:102D7800524A93421ED0183293421BD018329342C3
:102D880018D01832934215D01832934212D0183204
:102D980093420FD0183293420CD002F556729342E8
:102DA80008D01832934205D01832934202D0183214
:102DB8009342FFD01A6822F001021A604FF41652AB
:102DC800B6FBF2F6019A0132B242019216D90022FC
:102DD80084F834201B68DB0714D4012313E01A6835
:102DE80012F4807208D1196821F0100119600123CA
:102DF80084F8342084F83530E36BAAE71A68D707DB
:102E0800E0D4E4E7032384F83530E36C7DE72C4A0B
:102E180093423FF4C3AE143293423FF4BFAE143230
:102E280093423FF4BBAE143293423FF4B7AE143230
:102E380093423FF4B3AE143293423FF4AFAE143230
:102E480093423FF4ABAE02B0BDE8F081970603D4DD
:102E58001A6822F004021A60236C56E702208840A0
:102E680010EA0C0F16D0960714D56860100403D525
:102E7800D1030DD4636C48E712F0200208D1196819
:102E880021F00A011960012384F8342084F83530D0
:102E9800E36B3AE70820884010EA0C0FD3D01207FA
:102EA800D1D51A6822F00E021A600123002203FA13
:102EB80001F16960636584F83420A4E728000240C2
:102EC8001C54025830B50468174D8068AC4221D0B4
:102ED8001835AC421ED01835AC421BD01835AC4260
:102EE80018D01835AC4215D01835AC4212D0183568
:102EF800AC420FD01835AC420CD005F55675AC4233
:102F080008D01835AC4205D01835AC4202D0183577
:102F1800AC42FFD04028636002D1A260E16030BDBE
:102F2800A160E260FBE700BF10000240F8B505466B
:102F38008068802804D14FF4807301206B65DAE043
:102F480095F83400012800F07381012085F83400D9
:102F580095F83500012840F0688102202C686B4EF6
:102F680085F835000020B4426865D5E916C707F032
:102F78001F0700F0C1806648844200F0BD80183009
:102F8800844200F0B9801830844200F0B5801830CF
:102F9800844200F0B1801830844200F0AD801830CF
:102FA800844200F0A9801830844200F0A58000F522
:102FB8005670844200F0A0801830844200F09C8053
:102FC8001830844200F098801830844200F09480D1
:102FD8001830844200F090801830844200F08C80D1
:102FE8001830844200F088801830844200F08480D1
:102FF800206840F4004040F0200020602361012355
:10300800BB40CCF80430069B2846FFF75BFFB44270
:103018002A6C00F083803E4B9C427FD018339C4240
:103028007CD018339C4279D018339C4276D0183320
:103038009C4273D018339C4270D018339C426DD098
:1030480003F556739C4269D018339C4266D01833F6
:103058009C4263D018339C4260D018339C425DD0A8
:1030680018339C425AD018339C4257D018339C428C
:1030780054D0284B9C4251D014339C424ED0143328
:103088009C424BD014339C4248D014339C4245D0C8
:1030980014339C4242D014339C423FD014339C4298
:1030A8003CD0236823F00E0343F00A032360002A70
:1030B80040F0B180AB6C002B40F0AD80154B9C42CA
:1030C80075D0154B9C4272D014339C426FD0143388
:1030D8009C426CD014339C4269D014339C4266D015
:1030E80014339C4263D014339C4260D02368002080
:1030F80043F001032360F8BD206840F4802020607D
:1031080023613F23BB40CCF808307CE71000024025
:1031180028000240085402581C540258D5E91931B5
:103128005960EB6E13B1D5E91C315960B4422DD00A
:10313800404B9C422AD018339C4227D018339C42DB
:1031480024D018339C4221D018339C421ED0183307
:103158009C421BD018339C4218D003F556739C42EE
:1031680014D018339C4211D018339C420ED0183317
:103178009C420BD018339C4208D018339C4205D08F
:1031880018339C4202D018339C428AD1236823F01A
:103198001E0343F016032360636943F080036361F1
:1031A8000AB9AB6C1BB1236843F0080323602B6E8C
:1031B8001A68D20334D4EB6E1BB11A6842F48072D9
:1031C8001A60B44292D01B4B9C428FD018339C4259
:1031D8008CD018339C4289D018339C4286D018333F
:1031E8009C4283D018339C4280D018339C423FF4D1
:1031F8007DAF03F556739C423FF478AF18339C4279
:103208003FF474AF18339C423FF470AF18339C42BC
:103218003FF46CAF6AE7236843F0040323604DE78B
:103228001A6842F480721A60C5E74FF4006384E6B6
:10323800022060E72800024003681548834221D035
:10324800183083421ED0183083421BD01830834276
:1032580018D01830834215D01830834212D0183055
:1032680083420FD0183083420CD000F55670834249
:1032780008D01830834205D01830834202D0183065
:103288008342FFD012B9D960002070471961FBE76B
:10329800100002402DE9F74F0023DFF8B8E14FF0A6
:1032A8000F094FF0B0440A6832FA03F502D103B0AF
:1032B800BDE8F08F012505FA03F818EA020200F0CC
:1032C800B3804D684FEA430C032625F0100A06FA2E
:1032D8000CF60AF1FF37F643012F10D8876807EA82
:1032E800060BCF6807FA0CF747EA0B0787604768B1
:1032F80027EA08082F099F4047EA08074760C76878
:10330800BAF1020F07EA06088F6807FA0CF747EACE
:103318000807C76014D14FEAD30803F0070A00EB87
:1033280088084FEA8A0AD8F8207009FA0AFB27EABF
:103338000B0B0F6907FA0AF747EA0B07C8F8207062
:103348000768374005F0030606FA0CF63E430660A8
:10335800EE0069D5DEF8F46023F0030703F0030CF0
:1033680046F0020607F1B0474FEA8C0CCEF8F4603D
:1033780007F58067DEF8F46009FA0CF806F0020633
:103388000196019EBE6826EA0808314EB0424DD02B
:1033980006F58066B0424BD006F58066B04249D04B
:1033A80006F58066B04247D006F58066B04245D043
:1033B80006F58066B04243D006F58066B04241D03B
:1033C80006F58066B0423FD006F58066B0423DD033
:1033D80006F58066B04214BF0A26092606FA0CF6DE
:1033E80015F4803F46EA0806BE606FEA0207D4F883
:1033F80080600CBF3E40164315F4003FC4F880605F
:10340800D4F884600CBF3E40164315F4801FC4F8FE
:10341800846026680CBF3E401643AD02266066688D
:1034280054BF3E401643666001333CE70026D5E7AB
:103438000126D3E70226D1E70326CFE70426CDE706
:103448000526CBE70626C9E70726C7E70826C5E706
:10345800000002580044025800690840003818BFAC
:10346800012070470AB1816170470904FBE70368CE
:103478009A69910701D500229A629A69D20703D402
:103488009A6942F001029A617047000030B5039DC5
:10349800C1F30901046845EA024260681A43044B13
:1034A80043EA55530A4320EA03000243626030BDF1
:1034B800FF63FF03F8B5036804460E46174698698C
:1034C80010F0100017D1F8BD721C15D0FEF764FC7F
:1034D800C01B864200D376B9636C43F02003636453
:1034E800202384F841300023012084F8423000234F
:1034F80084F84030E7E72568AB699B06E4D51023DC
:1035080020262046EB61EE61FFF7B1FF6B6823F0E0
:10351800FF7323F48B3323F4FF7323F001036B60F1
:10352800636C43F00403636484F84160DBE770B5BF
:1035380004460D46164623689B699B0701D5002063
:1035480019E0324629462046FFF7B4FF90B96A1CB5
:10355800F1D0FEF721FC801BA8420DD9636C43F023
:1035680020036364202384F84130002384F8423028
:1035780084F84030012070BD002DDCD1EEE770B535
:1035880004460D46164623689B699B0601D5002014
:1035980017E0324629462046FFF78CFF80B9FEF730
:1035A800FBFB801BA8420DD9636C43F020036364C6
:1035B800202384F84130002384F8423084F84030D6
:1035C800012070BD002DDED1EEE72DE9F041069F08
:1035D8000446884616461D462268936938EA03035E
:1035E8000CBF01230023B34201D0002013E06B1C61
:1035F800F3D0FEF7D1FBC01BA8420ED9636C0120A3
:1036080043F020036364202384F84130002384F8C6
:10361800423084F84030BDE8F081002DDCD1EDE780
:103628002DE9F3411E46174B054614460093F2B2A6
:103638004FF08073DDE90878FFF728FF28464246F7
:103648003946FFF774FFC8B9012E2B680CD1E4B2D4
:103658000022802128469C623B46CDF8208002B09B
:10366800BDE8F041FFF7B1BF220A394628469A6201
:103678004246FFF75CFF08B92B68E8E7012002B073
:10368800BDE8F081002000802DE9F3411E46174B6C
:10369800054614460093F2B20023DDE90878FFF7E7
:1036A800F5FE284642463946FFF741FFC8B9012EC4
:1036B8002B680CD1E4B20022402128469C623B468C
:1036C800CDF8208002B0BDE8F041FFF77EBF220AA6
:1036D800394628469A624246FFF729FF08B92B68FF
:1036E800E8E7012002B0BDE8F08100BF00200080BB
:1036F80010B5044600284AD090F8413003F0FF0284
:103708001BB980F84020FDF7FFF9242384F84130E5
:1037180023681A6822F001021A60626822F0706257
:103728001A619A6822F400429A60D4E902210129B8
:1037380024D142F400429A605A68002042F0007294
:1037480042F400425A60DA6822F40042DA60D4E9AE
:1037580004210A43A16942EA0122DA60D4E9072177
:103768000A431A601A6842F001021A602023606452
:1037780084F84130206384F8420010BD42F40442CA
:1037880002299A60D8D14FF400625A60D4E7012028
:10379800F3E72DE9F74F9A4690F8413004460E4674
:1037A800202B9146BDF834B0DDF8388040F0A48075
:1037B8000C9B13B1BBF1000F06D14FF40073636487
:1037C800012003B0BDE8F08F90F84030012B00F0E5
:1037D8009380012780F84070FEF7DEFA3A460090A1
:1037E800054619234FF400412046FFF7EEFE074631
:1037F8000028E5D1212360634A46314684F84130E8
:10380800402384F842300C9B606420466362534630
:10381800A4F82AB0CDE90085FFF702FF10B184F8BB
:103828004070CDE7638D9BB2FF2B55D9FF224FF037
:1038380080732285009031462046FFF727FE2A46EE
:1038480041462046FFF773FE0028B9D1636A226813
:1038580013F8011B91626362638D228D013B013A6B
:103868009BB292B26385638D22859BB2ABB1A2B93C
:103878004346802120460095FFF7A7FE00289FD1E8
:10388800638D9BB2FF2B2FD9FF224FF080732285C7
:10389800009031462046FFF7F9FD638D9BB2002B5F
:1038A800CDD12A4641462046FFF769FE002887D138
:1038B80023682021D9615A6822F0FF7222F48B32E2
:1038C80022F4FF7222F001025A6084F8411084F851
:1038D800400084F8420074E7628D4FF0007392B2A2
:1038E8002285D2B20090A6E7628D4FF0007392B2A3
:1038F8002285D2B20090CCE7022062E72DE9F74F8B
:103908009A4690F8413004460E46202B9146BDF861
:1039180034B0DDF8388040F0A8800C9B13B1BBF1BF
:10392800000F06D14FF400736364012003B0BDE8B3
:10393800F08F90F84030012B00F09780012780F835
:103948004070FEF729FA3A460090054619234FF4CD
:1039580000412046FFF739FE07460028E5D122231B
:1039680060634A46314684F84130402384F8423047
:103978000C9B6064204663625346A4F82AB0CDE9E4
:103988000085FFF781FE10B184F84070CDE7638DA4
:103998009BB2FF2B364B58D9FF22228500934FF05C
:1039A800807331462046FFF771FD4346002204210B
:1039B80020460095FFF709FE0028B6D123685A6A09
:1039C800636A1A70636A228D0133013A6362638DF8
:1039D80092B2013B22859BB26385638D9BB2ABB1EA
:1039E800A2B94346802120460095FFF7EEFD002846
:1039F8009BD1638D9BB2FF2B2FD9FF224FF0807391
:103A08002285009031462046FFF740FD638D9BB22A
:103A1800002BCAD12A4641462046FFF7B0FD0028B0
:103A280083D123682021D9615A6822F0FF7222F4D9
:103A38008B3222F4FF7222F001025A6084F841109E
:103A480084F8400084F8420070E7628D92B22285C3
:103A5800D2B200934FF00073A3E7628D4FF000736A
:103A680092B22285D2B20090CCE702205EE700BF76
:103A78000024008010B590F841200346202AD4B2D3
:103A88001CD190F84020012A18D0242280F8412027
:103A98000268106820F001001060106820F480505F
:103AA80010601068014300201160116841F00101A5
:103AB800116083F8414083F8400010BD0220FCE704
:103AC80010B590F841200346202AD4B21BD190F8B3
:103AD8004020012A17D0242280F84120026810686B
:103AE80020F001001060106820F4706040EA0121A5
:103AF80000201160116841F00101116083F8414014
:103B080083F8400010BD0220FCE7000038B5104CD7
:103B1800E36813F0040FE36805D103F00703181AEC
:103B280018BF012038BD23F007031843E060FEF7F3
:103B380033F9054663689B0401D50020F2E7FEF7D8
:103B48002BF9401BB0F57A7FF4D90120EAE700BFD2
:103B580000480258F8B50446002874D00368D8070E
:103B68005ED42368990700F1AD802368DA0627D56B
:103B78009F4A1369916A03F03803082B07D0182B62
:103B880040F00A8101F00303012B40F0058113681E
:103B9800DB0502D5E369802B55D1FEF715F941F213
:103BA8000303216A9842924B00F2EF805A68202959
:103BB80022F0F8420CBF42F0804242EA81625A6029
:103BC8002368190700F1298123689A0600F14A81C0
:103BD80023685D071ED5874D2B6843F480732B60DF
:103BE800FEF7DAF806462B68DA0540F16081A3682B
:103BF8007F4D012B40F062812B6F43F001032B674F
:103C080041F28837FEF7C8F8794E0546336F9B07AF
:103C180040F17A81626A002A40F07D8100202BE021
:103C2800734A1369916A03F03803102B05D0182BD7
:103C38000BD101F00303022B07D113689A0390D527
:103C48006368002B8DD1012016E06368684DB3F5D9
:103C5800803F12D12B6843F480332B60FEF79CF829
:103C6800634E054633689B033FF57BAFFEF794F838
:103C7800401B6428F6D90320F8BDA3B92B6823F4A8
:103C880080332B602B6823F480232B60FEF784F8A5
:103C980006462B689F037FF564AFFEF77DF8801B0F
:103CA8006428F6D9E7E7B3F5A02F2B6803D143F4CE
:103CB80080232B60CEE723F480332B602B6823F41A
:103CC8008023CAE74A4A1369916A13F0380303D07C
:103CD800182B1FD18E071DD113685D0702D5E36825
:103CE800002BB0D0FEF770F841F203032169984227
:103CF8003F4B5A6809D822F47C3240290CBF42F461
:103D0800003242EA01325A602FE722F0FE4242EACC
:103D18000162F8E7364DE2682B6832B323F01903E5
:103D280013432B60FEF738F806462B68580711D561
:103D3800FEF74AF841F20303226998426B680FD8EC
:103D480023F47C33402A0CBF43F4003343EA0233A4
:103D58006B600AE7FEF720F8801B0228E5D98AE79E
:103D680023F0FE4343EA0263F2E723F001032B60EA
:103D7800FEF712F806462B6859077FF5F6AEFEF7F0
:103D88000BF8801B0228F6D975E7DA6822F07C5216
:103D980042EA0162DA6013E7E369154D63B32B6801
:103DA80043F080032B60FDF7F7FF06462B68DF051D
:103DB80011D5FEF709F841F20303226A984210D898
:103DC8006B68202A23F0F8430CBF43F0804343EA92
:103DD80082636B60F4E6FDF7DFFF801B0228E5D9FC
:103DE80049E7EB6823F07C5343EA0263EB60E7E6BC
:103DF80000440258004802582B6823F080032B60C7
:103E0800FDF7CAFF06462B68D8057FF5D9AEFDF742
:103E1800C3FF801B0228F6D92DE76369944D83B14F
:103E28006B6F43F001036B67FDF7B6FF06466B6FD8
:103E38009B073FF5C9AEFDF7AFFF801B0228F6D9F7
:103E480019E76B6F23F001036B67FDF7A5FF0646C3
:103E58006B6F9F077FF5B8AEFDF79EFF801B0228AA
:103E6800F6D908E7A369824D83B12B6843F48053E0
:103E78002B60FDF791FF06462B6898043FF5A8AE26
:103E8800FDF78AFF801B0228F6D9F4E62B6823F495
:103E980080532B60FDF780FF06462B6899047FF559
:103EA80097AEFDF779FF801B0228F6D9E3E6FDF708
:103EB80073FF801B64287FF696AEDCE6B3B92B6FE0
:103EC80041F2883723F001032B672B6F23F004039B
:103ED8002B67FDF761FF06462B6F98077FF59AAEB3
:103EE800FDF75AFF801BB842F6D9C4E6052B2B6FA5
:103EF80003D143F004032B677EE623F001032B670D
:103F08002B6F23F004037AE6FDF746FF401BB84207
:103F18007FF67CAEAFE6564D2B6903F03803182BBD
:103F280078D02B68022A23F080732B6065D1FDF7C7
:103F380033FF06462B68990159D4AB6AA26A23F469
:103F48007C7323F003031343E26A43EA0213AB6270
:103F5800636BA26B013B013A5B0212049BB202F451
:103F6800FE021343226B013AC2F308021343E26BC9
:103F7800013A120602F0FE4213432B63EB6A23F068
:103F88000103EB626B6BA26C6FF3CF0343EAC203CE
:103F98006B63EB6A226C23F00C031343EB62EB6A4E
:103FA800626C23F002031343EB62EB6A43F4803341
:103FB800EB62EB6A43F40033EB62EB6A43F4802371
:103FC800EB62EB6A43F00103EB622B6843F080730A
:103FD8002B60FDF7E1FE264D04462B689A013FF55C
:103FE8001DAEFDF7D9FE001B0228F6D943E6FDF702
:103FF800D3FE801B02289DD93DE6FDF7CDFE044681
:104008002B689B017FF50AAEFDF7C6FE001B022850
:10401800F6D930E6012AAB6A286B3FF414AE03F0F8
:104028000302A16A8A427FF40EAEC3F30513E26A63
:1040380093427FF408AE236BC0F30802013B9A4217
:104048007FF401AE636BC0F34622013B9A427FF4D2
:10405800FAADA36BC0F30642013B9A427FF4F3AD7D
:10406800E36BC0F30660013BC01A18BF012003E6EA
:104078000044025870B5234C88B00E461546D4F853
:10408800E030F8B943F001034FF4807C03A9C4F889
:10409800E030D4F8E030079003F001030193019B6E
:1040A8000223CDE903C30323CDE905031648FFF72F
:1040B800F1F8236923F0FE7343EA060129432161DD
:1040C80008B070BD43F004034FF4007203210F4899
:1040D800C4F8E030D4F8E03003F004030293029B04
:1040E8000223CDE903230023CDE9053103A9079372
:1040F800FFF7D0F8236923F07E4343EA060141EA3B
:10410800C511DCE7004402580000025800080258B4
:10411800494B1A6902F03802102A30B500F088803D
:10412800182A0CD0002A40F085801A68434812F0FB
:10413800200F03D01B68C3F3C103D84030BD996A70
:104148009D6ADC6A15F47C7FC5F305105A6BF5D0BF
:10415800C2F3CC0204F0010401F0030107EE900A57
:104168006243B7EE006A0129B8EEE77A06EE902AB4
:10417800FAEEE96A4ED002293ED000294AD11A68DF
:10418800920627D519682D4AC1F3C1011B6BCA4095
:10419800C3F3080307EE902AF8EEE75AC5EE877ACC
:1041A80007EE103AB8EEC77A37EE267A37EE067A77
:1041B80067EE877A204B1B6BC3F34623013307EE68
:1041C800103AF8EEC76A87EEA67AFCEEC77A17EEC1
:1041D800900AB3E71B6BC3F3080307EE903AF8EEB7
:1041E800E77A77EEA67A77EE867A9FED156AC6EEBD
:1041F800076A67EEA67ADDE71B6BC3F3080307EED1
:10420800903AF8EEE77A77EEA67A77EE867A9FED1F
:104218000D6AECE71B6BC3F3080307EE903AF8EE60
:10422800E77A77EEA67A77EE867A9FED076ADEE779
:10423800064883E7064881E7004402580090D00307
:104248000024744C20BCBE4B0024744A40787D0185
:1042580000093D002DE9F0410D46044610B9012042
:10426800BDE8F081884A136803F00F038B42C0F061
:10427800938023685F0700F19B801E070BD5834955
:104288006069CA6902F07002904204D9CA6922F0D2
:1042980070020243CA61D8060BD57C49A069CA6975
:1042A80002F4E062904204D9CA6922F4E06202434F
:1042B800CA6199060BD57549E0690A6A02F070026D
:1042C800904204D90A6A22F0700202430A629A07ED
:1042D8000BD56E49E0688A6902F00F02904204D952
:1042E8008A6922F00F0202438A61DF076ED42368CD
:1042F8009E0700F1A18064490A6802F00F02AA42F1
:1043080000F2A880580700F1B18019070BD55F4962
:104318006069CA6902F07002904204D2CA6922F048
:1043280070020243CA61DA060BD55849A069CA6906
:1043380002F4E062904204D2CA6922F4E0620243C5
:10434800CA619B060BD5514AE169136A03F07003F1
:10435800994204D2136A23F070030B431362FFF7E8
:10436800D7FE4A494A4A8B69C3F30323D35C03F057
:104378001F03D8408B6903F00F03D35C454A03F051
:104388001F0320FA03F31360434B1860434BBDE847
:10439800F0411868FDF7A0BC136823F00F030B4326
:1043A8001360136803F00F038B427FF458AF60E784
:1043B800364920698A6902F0700290427FF65DAF43
:1043C8008A6922F0700202438A6156E72F4BA1687E
:1043D8009A6922F470620A439A6161681A6802292C
:1043E8001DD112F4003F3FF43AAF1A6941F2883800
:1043F800264F22F007020A431A61FDF7CDFC064654
:104408003B69626803F03803B3EBC20F3FF46FAF48
:10441800FDF7C2FC801B4045F2D9032020E70329A1
:1044280002D112F0007FDEE7012902D112F4807F69
:10443800D9E712F0040FD6E71449E0688A6902F058
:104448000F029042BFF457AF8A6922F00F0202436D
:104458008A6150E70A6822F00F022A430A600A6854
:1044680002F00F02AA427FF4FAAE4BE7074920692F
:104478008A6902F070029042BFF447AF8A6922F05D
:10448800700202438A6140E700200052004402584B
:104498002B5C0008000000240400002418000024FD
:1044A800F8B5394C06460D46A36A03F00303032BFF
:1044B80067D0236823F080632360FDF76DFC07460F
:1044C80023681A0149D4A36A326823F47C3343EA87
:1044D8000233A362B368F268013B013A5B0212043B
:1044E8009BB202F4FE0213437268013AC2F3080257
:1044F80013433269013A120602F0FE421343A363E2
:10450800E36A726923F0C0031343E362E36AB269A2
:1045180023F020031343E362E36A23F01003E3620A
:10452800E36BF2696FF3CF0343EAC203E363E36A21
:1045380043F01003E362E36AB5B943F40023E3628E
:10454800114C236843F080632360FDF725FC054682
:1045580023681B010FD5002005E0FDF71DFCC01BDB
:104568000228ADD90320F8BD012D0CBF43F48013F8
:1045780043F40013E3E7FDF70FFC401B0228E7D9DB
:10458800F0E70120EFE700BF00440258F8B5394CC6
:1045980006460D46A36A03F00303032B67D023687E
:1045A80023F080532360FDF7F7FB074623689A0042
:1045B80049D4A36A326823F07C7343EA0253A362A6
:1045C800B368F268013B013A5B0212049BB202F441
:1045D800FE0213437268013AC2F3080213433269B8
:1045E800013A120602F0FE4213432364E36A726939
:1045F80023F440631343E362E36AB26923F400736C
:104608001343E362E36A23F48073E362636CF26941
:104618006FF3CF0343EAC2036364E36A43F480732E
:10462800E362E36AB5B943F48003E362114C23689B
:1046380043F080532360FDF7AFFB054623689B00DA
:104648000FD5002005E0FDF7A7FBC01B0228ADD958
:104658000320F8BD012D0CBF43F4000343F0807321
:10466800E3E7FDF799FB401B0228E7D9F0E70120B3
:10467800EFE700BF004402582DE9F84303680546F8
:104688001E011ED5436EB3F5001F2AD00FD8D3B133
:10469800B3F5801F1DD001262B68DC054ED56B6D48
:1046A800042B4AD8DFE803F0223D43272700B3F55F
:1046B800401FF0D1824A696E136D23F440130B43F7
:1046C80013650026E8E77E4AD36A43F40033D362D1
:1046D800F0E702210430FFF7E3FE06460028DBD1AD
:1046E800E8E702212430FFF751FFF6E7744AD36A5E
:1046F80043F40033D362344614BB714A696D136DB9
:1047080023F007030B4313652B68980527D5AB6D7A
:10471800802B41D016D89BB3402B37D00126344686
:104728001DE00021281DFFF7BBFE0446E4E7002139
:1047380005F12400FFF72AFFF7E701263446E3E7EF
:104748002646E1E7C02B02D0B3F5807FE6D14CBB0B
:104758005B4AA96D136D23F4E0730B4313652B6853
:10476800590530D5D5F8A430B3F5800F47D01BD8FC
:10477800002B38D0B3F5001F3BD00126344622E089
:104788004F4AD36A43F40033D362E0E70021281D7F
:10479800FFF786FE0446DAE7002105F12400FFF75B
:1047A800F5FEF7E72646DAE7B3F5C00F02D0B3F512
:1047B800000FE2D14CBB424AD5F8A410936D23F404
:1047C80060030B4393652B681A052FD5D5F8A830DD
:1047D800B3F1007F43D01AD8ABB3B3F1807F38D0A0
:1047E8000126344622E0364AD36A43F40033D362C2
:1047F800E0E70021281DFFF753FE0446DAE7002111
:1048080005F12400FFF7C2FEF7E72646DBE7B3F120
:10481800407F02D0B3F1806FE2D134BB284AD5F88B
:10482800A810936D23F0E0630B4393652B689B01FD
:1048380027D5AB6C202B3AD019D8D3B1102B30D058
:10484800012634461DE01E4AD36A43F40033D3627E
:10485800E3E70021281DFFF723FE0446DDE70021DA
:1048680005F12400FFF792FEF7E72646DEE7302B36
:10487800E6D114BB124AA96CD36C23F030030B4366
:10488800D3642B68DF042CD5EB6DB3F5005F73D0D0
:1048980018D8002B64D0B3F5805F67D00126344662
:1048A8001FE0074AD36A43F40033D362E1E70221E9
:1048B800281DFFF7F5FD0446DBE72646E1E700BFC4
:1048C80000440258B3F5405F02D0B3F5804FE5D1FC
:1048D800002C57D19B4AE96D136D23F4E0430B4339
:1048E80013652B6898040BD52B6EB3F5003F62D087
:1048F8004AD8002B50D0B3F5803F56D00126344615
:104908002B6859040CD5D5F8AC30B3F1005F72D0E0
:1049180059D8002B5FD0B3F1805F66D001263446AA
:104928002B681A0411D5EB6EB3F1805F6BD0B3F12D
:10493800005F6ED0002B72D1002C73D1814AE96ED2
:10494800136D23F040530B4313652B68DB0179D5B6
:104958006B6C032B00F2BA80DFE803F06B66B26B76
:10496800784AD36A43F40033D362B1E70021281DA3
:10497800FFF796FD0446ABE7002105F12400FFF799
:1049880005FEF7E72646ACE723F48032B2F5802F20
:1049980002D0B3F5403FB1D19CB96A4A296E136D74
:1049A80023F4E0230B431365AAE70121281DFFF731
:1049B80077FD0446F0E7012105F12400FFF7E6FD45
:1049C800F7E726469CE723F08052B2F1804F02D0E9
:1049D800B3F1405FA2D1A4B95A4AD5F8AC10936D8F
:1049E80023F0E0430B4393659AE70121281DFFF765
:1049F80057FD0446EFE7012105F12400FFF7C6FD46
:104A0800F7E726468CE74F4AD36A43F40033D3626C
:104A180092E70121281DFFF743FD04468CE7012694
:104A2800344692E7264690E7464AD36A43F4003371
:104A3800D362002C4DD1434A696CD36C23F0030335
:104A48000B43D3642B685F024DD53F4F3B6843F45B
:104A580080733B60FDF7A0F980463B68D8053AD5DE
:104A6800002C6DD1374BD5F8B0001A6F424012F4C4
:104A7800407F0BD01A6F196F22F4407241F48031D5
:104A88001967196F21F4803119671A67B0F5807FAB
:104A980041D0D5F8B0302B4903F44072B2F5407FCD
:104AA8004AD10869294A20F47C5002EA13120243C9
:104AB8000A61C3F30B03234A116F0B43136712E018
:104AC8000221281DFFF7ECFC0446B2E70126344614
:104AD800B8E72646B6E7FDF75FF9A0EB08006428BB
:104AE800BBD9032634462B68DA0709D5AB6F102BE0
:104AF80043D02DD8002B31D0082B38D0012634468E
:104B08002B689B074ED56B6F052B61D8DFE803F048
:104B1800423D5A424242FDF73FF9DFF828800746F6
:104B280041F28839D8F870309907B2D4FDF734F9D2
:104B3800C01B4845F6D9D4E70A6922F47C52B7E786
:104B48002646D0E70044025800480258CFFFFF002D
:104B580023F00802202A01D0182BCFD19CB9AC4AE7
:104B6800A96F536D23F038030B435365C8E7012140
:104B7800281DFFF795FC0446F0E7012105F1240004
:104B8800FFF704FDF7E72646BAE70121281DFFF7DE
:104B980087FC0446FCB99E4A696F536D23F00703EE
:104BA8000B4353652B685F0727D5D5F89030052B45
:104BB80000F23081DFE813F016001100250116001D
:104BC80016001600012105F12400FFF7DFFCE0E7DD
:104BD80001263446E6E72646E4E70121281DFFF7CB
:104BE8005FFC0446002C40F01881894AD5F89010E3
:104BF800936D23F007030B4393652B68980610D534
:104C0800D5F88C30B3F1005F00F0228100F2078103
:104C1800002B00F00D81B3F1805F00F013810126B5
:104C280034462B68590610D5D5F89830B3F5006F7F
:104C380000F02F8100F21481002B00F01A81B3F5E7
:104C4800806F00F02081012634462B681A0610D5A3
:104C5800D5F89C30B3F5804F00F03C8100F22181FB
:104C6800002B00F02781B3F5005F00F02D810126AD
:104C780034462B681B0714D5D5F88030B3F5805F10
:104C880007D1022105F12400FFF780FC002818BF96
:104C980001265F4AD5F88010536D23F440530B4327
:104CA80053652B68DF0614D5D5F89430B3F5807FAB
:104CB80007D1022105F12400FFF768FC002818BF7E
:104CC8000126534AD5F89410936D23F440730B438F
:104CD80093652B6818031AD5D5F8A010B1F5803F55
:104CE80000F00081B1F5003F06D0002940F00081B6
:104CF800281DFFF7D5FB0446002C40F0FC80444AF1
:104D0800D5F8A010936D23F440330B4393652B68BB
:104D180059030FD5D5F88430B3F5001F00F0FC8097
:104D2800B3F5401F00F0EE80B3F5801F00F0E5807A
:104D3800012634462B68DA0309D5EB6C002B00F00A
:104D4800F480B3F5803F00F0FE80012634462B68DE
:104D58009B0007D5022105F12400FFF717FC002866
:104D680018BF01262B689F0340F10481E96FB1F554
:104D7800807F00F0018100F2EE80002900F0F180D0
:104D88000124DE0206D52249286F0A6D22F000426E
:104D980002430A65D80007D51D49D5F8B4000A6949
:104DA80022F4804202430A61990206D51849A86E86
:104DB8000A6D22F0807202430A655A0009D5144A26
:104DC800116921F4004111611169D5F8B800014356
:104DD8001161002B06DA0E49286DCA6C22F0405288
:104DE8000243CA641B0207D5094AD5F88810536DD7
:104DF80023F440030B435365201E18BF0120BDE870
:104E0800F883012105F12400FFF7C0FBE9E600BFA4
:104E18000044025801263446EFE62646EDE623F024
:104E28008052B2F1804F03D0B3F1405F7FF4F7AE08
:104E3800A4B9544AD5F88C10536D23F0E0430B43C2
:104E48005365EEE60021281DFFF72AFB0446EFE72D
:104E5800022105F12400FFF799FBF7E72646E0E673
:104E680023F48062B2F5805F03D0B3F5406F7FF41E
:104E7800EAAEA4B9434AD5F89810936D23F4E053E9
:104E88000B439365E1E60021281DFFF709FB044663
:104E9800EFE7022105F12400FFF778FBF7E7264644
:104EA800D3E623F40052B2F5004F03D0B3F5C04F58
:104EB8007FF4DDAEA4B9334AD5F89C10936D23F482
:104EC80060430B439365D4E60021281DFFF7E8FAF9
:104ED8000446EFE7022105F12400FFF757FBF7E747
:104EE8002646C6E6022105F12400FFF74FFB02E73C
:104EF800012634460BE7264609E7224AD36A43F4DB
:104F08000033D3627CB91F4AD5F88410536D23F45B
:104F180040130B4353650DE7012105F12400FFF70A
:104F280035FB0446EEE7264604E7164AD36A43F4FF
:104F38000033D3626CB9134AE96CD36C23F4803321
:104F48000B43D36403E70221281DFFF7A9FA04469F
:104F5800F0E72646FBE621F48072B2F5007F7FF485
:104F68000FAF002C7FF40DAF0648426D22F440725B
:104F78000A434265344604E70248C26A42F40032F2
:104F8800C262EEE700440258036859699A6942F020
:104F980008029A619A6942F010029A611A6822F02E
:104FA80001021A601A6922F45B7222F003021A6184
:104FB8009A6822F440429A6090F88120042A0BD023
:104FC8008A0609D5D0F8842042F08002C0F88420EF
:104FD8009A6942F020029A6190F88120032A0BD046
:104FE8004A0609D5D0F8842042F00402C0F884208B
:104FF8009A6942F040029A618A0509D5D0F884205E
:1050080042F00102C0F884209A6942F400729A6161
:10501800CA0509D5D0F8842042F00802C0F88420D7
:105028009A6942F480729A610023A0F86230A0F86D
:105038006A30704770B5044608B9012070BD02682F
:105048000023444983628A42C36809D0A1F57841A4
:105058008A4205D001F580618A4201D00F2BECD835
:10506800E16B08334909DB0801FB033339498A42FC
:1050780063D0A1F578418A425FD001F580618A4208
:105088005BD0082BD9D894F8813003F0FF0223B9FC
:10509800204684F88020FBF7B3FD0223226861686C
:1050A80084F881301368A56B23F001031360A369AA
:1050B800B3F1806F04D1B1F5800F40D1002D43D0FA
:1050C800A66A0B43E0692B433043E66B3043E6683E
:1050D80030439060606B0343606A03432069034375
:1050E80060690343206A0343E06C0343A0680343F9
:1050F800A06C0343A06D0343D36059B9936823F4AC
:10510800C05343F400639360936823F4C06343F48B
:1051180080639360136D23F0010313654B0205D57B
:10512800D368616D23F000430B43D3600020012353
:10513800C4F8840084F8813080E7102BA2E70029A6
:10514800BED1B5F1805FBBD1106840F480501060CB
:10515800B6E700BF003001402DE9F0471D4690F842
:10516800803004468A46012B91460FD00123D0F89F
:10517800008080F88030FCF70FFE94F881300646F6
:10518800012BDFB206D0002384F88030022738468E
:10519800BDE8F087BAF1000F02D0B9F1000F03D1D2
:1051A800002384F88030F2E70323A268C4F85CA0E7
:1051B80084F88130B2F5C02F4FF00003A4F8609056
:1051C800C4F884306366A4F86290A4F86830A4F840
:1051D8006A30C4E91C33236803D11A6842F40062B8
:1051E8001A605A686FF30F0242EA09025A601A6895
:1051F80042F001021A606268B2F5800F03D11A68A2
:1052080042F400721A60E3680F2B2ED8072B71D86E
:10521800B4F8623021689BB26BB34B6913F0020992
:1052280000F09F80B4F86230E26D9BB2032B7ED908
:10523800E36B402B7BD952F8043B0B62B4F8623025
:10524800E265043B9BB2A4F86230E1E7536913F0CE
:10525800020823D0E36D53F8041B1162E365B4F828
:105268006230013B9BB2A4F86230B4F86230226825
:105278009BB2002BEAD123685B691B077BD52046CC
:10528800FFF782FE002384F88030012384F8813000
:10529800D4F88470003F18BF012778E7FCF77CFD3D
:1052A800801BA842E1D36B1CDFD02046FFF76CFEC1
:1052B80084F88080D0F8843043F48073C0F8843058
:1052C800012380F8813062E74B6913F0020921D08D
:1052D800B4F86220E36D92B2012A12D9E26B82B16E
:1052E80053F8042B0A62E365B4F86230023B9BB2C0
:1052F800A4F86230B4F8623021689BB2002BE3D185
:10530800B9E733F8022BA8F82020E365B4F8623037
:10531800013BECE7FCF740FD801BA842EAD3681C80
:10532800E8D02046FFF730FE84F88090C2E7B4F852
:1053380062309BB2012B0AD9E36B43B132F8023BCE
:10534800A8F82030B4F86230E265023B7AE71378B7
:1053580081F82030E36D0133E365B4F86230013B36
:1053680070E7FCF719FD801BA842FFF451AF691CD8
:105378003FF44EAFD5E7FCF70FFD801B85423FF6A3
:105388007AAF6A1C3FF477AFD4F8843043F0200337
:10539800C4F8843073E70000036A23F0010370B592
:1053A8000362036A4468826923F002030D6822F4E9
:1053B800803222F073022A438D682B43124DA84293
:1053C8000FD005F58065A8420BD005F57055A842A9
:1053D80007D005F58065A84203D005F58065A84289
:1053E8000BD1CD6823F008032B4324F44075D1E991
:1053F800054623F0040334432C43446082614A6821
:105408004263036270BD00BF00000140036A23F4D9
:10541800807370B50362036A4268C46923F4007339
:105428000D6824F073042C438D6843EA0523144D5A
:10543800A8420FD005F58065A8420BD005F5705538
:10544800A8420FD122F44055D1E90526324345EA56
:1054580002120EE023F40063CD6843EA052323F427
:105468008063EFE7074DA842ECD005F58065A842B8
:10547800E8D042604A68C461C263036270BD00BF7D
:105488000000014000440140036A23F4805330B512
:105498000362036A4468C26923F400530D6822F466
:1054A800E64242EA05228D6843EA05330E4DA842DA
:1054B8000FD005F58065A8420BD005F57055A842B8
:1054C80007D005F58065A84203D005F58065A84298
:1054D80004D124F480444D6944EA85144460C261CF
:1054E8004A680264036230BD00000140036A23F485
:1054F800803330B50362036A4468426D23F4003395
:105508000D6822F070022A438D6843EA05430F4D67
:10551800A8420FD005F58065A8420BD005F5705557
:10552800A84207D005F58065A84203D005F5806537
:10553800A84204D124F480344D6944EA0524446027
:1055480042654A688265036230BD00BF00000140C1
:10555800036A23F4801330B50362036A4468426D1A
:1055680023F400130D6822F4E04242EA05228D6814
:1055780043EA05530E4DA8420FD005F58065A842B1
:105588000BD005F57055A84207D005F58065A842EF
:1055980003D005F58065A84204D124F400344D6990
:1055A80044EA8524446042654A68C265036230BDA6
:1055B80000000140704770477047704770470368A4
:1055C8001A69910710B504460FD5DA6892070CD509
:1055D8006FF002021A61012202779B69990700F0B5
:1055E8008580FFF7E9FF0023237723681A695207AC
:1055F80010D5DA6850070DD56FF0040220461A61FD
:10560800022222779B6913F4407F75D0FFF7D4FFFD
:105618000023237723681A6911070FD5DA68120760
:105628000CD56FF0080220461A6104222277DB6944
:105638009B0767D0FFF7C0FF0023237723681A6909
:10564800D00610D5DA68D1060DD56FF010022046C5
:105658001A6108222277DB6913F4407F58D0FFF7DC
:10566800ABFF0023237723681A69D20708D5DA68C5
:10567800D00705D56FF0010220461A61FFF79AFF9F
:1056880023681A69110608D5DA68120605D56FF07D
:10569800800220461A6100F074FA23681A69D0055E
:1056A80008D5DA68110605D56FF4807220461A61AC
:1056B80000F068FA23681A69520608D5DA685006B5
:1056C80005D56FF0400220461A61FFF777FF23687F
:1056D8001A69910622D5DA6892061FD56FF0200262
:1056E80020461A61BDE8104000F04ABAFFF763FF90
:1056F8002046FFF762FF76E7FFF75DFF2046FFF7DA
:105708005CFF85E7FFF757FF2046FFF756FF93E753
:10571800FFF751FF2046FFF750FFA2E710BD00003A
:10572800254A0368904212D0B0F1804F0FD0A2F5FD
:105738007C4290420BD002F58062904207D002F57D
:105748008062904203D002F57842904208D123F05B
:1057580070034A68134323F44073CA6813430AE08A
:10576800164A9042F7D002F580629042F3D002F5D3
:1057780080629042EFD04A6923F0800313430360AC
:105788008B68C3620B6883620B4B98420FD003F59A
:10579800806398420BD003F57053984207D003F505
:1057A8008063984203D003F58063984201D10B6966
:1057B800036301234361704700000140004001403A
:1057C80010B5044650B390F83D3003F0FF021BB902
:1057D80080F83C20FBF75EFA02232068211D84F83C
:1057E8003D30FFF79DFF0123002084F8483084F8FE
:1057F8003E3084F83F3084F8403084F8413084F8F3
:10580800423084F8433084F8443084F8453084F8D2
:10581800463084F8473084F83D3010BD0120FCE75D
:10582800036A23F0100370B50362036A446882694F
:1058380023F020030D6822F0807222F4E64242EA47
:1058480005228D6843EA0513134DA8420FD005F5CC
:105858008065A8420BD005F57055A8420FD124F4F5
:105868004065D1E90546344345EA84040EE023F057
:105878008003CD6843EA051323F04003EFE7074DA3
:10588800A842ECD005F58065A842E8D04460826162
:105898004A688263036270BD000001400044014011
:1058A80038B590F83C300446012B72D001230C2AFD
:1058B80080F83C304DD008D8042A2AD0082A38D09D
:1058C800BAB1002084F83C0038BD102A51D0142AFF
:1058D800F7D10068FFF73CFE0A69436D43F40063A3
:1058E8004365436D23F480634365436D43EA0223B4
:1058F8004DE00068FFF750FD0A69836943F008032B
:105908008361836923F0040383618369134383619B
:10591800D7E70068FFF784FF0A69836943F40063E7
:105928008361836923F480638361836943EA022383
:10593800EDE70068FFF76AFD0A69C36943F00803E9
:10594800C361C36923F00403C361C3691343C3611B
:10595800B7E70068FFF798FD0A69C36943F4006375
:10596800C361C36923F48063C361C36943EA022343
:10597800EDE70068FFF7BAFD0A69436D43F00803D5
:105988004365436D23F004034365436D1343436547
:1059980097E7022098E710B501F01F010424036A75
:1059A8008C408A4023EA04030362036A1A430262B2
:1059B80010BD000008B529B990F84430012B1DD05E
:1059C80001204DE0042907D190F84530012BF7D18B
:1059D800022380F8453014E0082907D190F84630B2
:1059E800012BEDD1022380F846300AE090F84730C9
:1059F800012BE5D1022380F8473002E0022380F82A
:105A0800443000680422FFF7C6FF436C43F40043A8
:105A18004364144B984216D0B0F1804F13D0A3F5CD
:105A28007C4398420FD003F5806398420BD003F56E
:105A38008063984207D003F57843984203D0A3F5D2
:105A48006C43984207D18268074B1340062B06D057
:105A5800B3F5803F03D0036843F0010303600020DF
:105A680008BD00BF0000014007000100FFF7A2BF0A
:105A780070B590F83C3004460220012B37D02368DB
:105A88001B4D84F83D00AB425A68986802D0194E05
:105A9800B34203D122F470024E6832430E6822F0FA
:105AA8007002AB4242EA06025A6015D0B3F1804F49
:105AB80012D0114A93420FD002F5806293420BD064
:105AC80002F58062934207D002F57842934203D0F0
